{
  "_format": "hh-sol-artifact-1",
  "contractName": "StakingPool",
  "sourceName": "contracts/StackingPool.sol",
  "abi": [
    {
      "inputs": [
        {
          "internalType": "address",
          "name": "initialOwner",
          "type": "address"
        }
      ],
      "stateMutability": "nonpayable",
      "type": "constructor"
    },
    {
      "inputs": [
        {
          "internalType": "address",
          "name": "owner",
          "type": "address"
        }
      ],
      "name": "OwnableInvalidOwner",
      "type": "error"
    },
    {
      "inputs": [
        {
          "internalType": "address",
          "name": "account",
          "type": "address"
        }
      ],
      "name": "OwnableUnauthorizedAccount",
      "type": "error"
    },
    {
      "inputs": [],
      "name": "ReentrancyGuardReentrantCall",
      "type": "error"
    },
    {
      "anonymous": false,
      "inputs": [
        {
          "indexed": true,
          "internalType": "address",
          "name": "previousOwner",
          "type": "address"
        },
        {
          "indexed": true,
          "internalType": "address",
          "name": "newOwner",
          "type": "address"
        }
      ],
      "name": "OwnershipTransferred",
      "type": "event"
    },
    {
      "anonymous": false,
      "inputs": [
        {
          "indexed": true,
          "internalType": "address",
          "name": "user",
          "type": "address"
        },
        {
          "indexed": false,
          "internalType": "address",
          "name": "token",
          "type": "address"
        },
        {
          "indexed": false,
          "internalType": "uint256",
          "name": "amount",
          "type": "uint256"
        }
      ],
      "name": "TokenStaked",
      "type": "event"
    },
    {
      "anonymous": false,
      "inputs": [
        {
          "indexed": true,
          "internalType": "address",
          "name": "user",
          "type": "address"
        },
        {
          "indexed": false,
          "internalType": "address",
          "name": "token",
          "type": "address"
        },
        {
          "indexed": false,
          "internalType": "uint256",
          "name": "amount",
          "type": "uint256"
        }
      ],
      "name": "TokenUnstaked",
      "type": "event"
    },
    {
      "inputs": [],
      "name": "owner",
      "outputs": [
        {
          "internalType": "address",
          "name": "",
          "type": "address"
        }
      ],
      "stateMutability": "view",
      "type": "function"
    },
    {
      "inputs": [],
      "name": "renounceOwnership",
      "outputs": [],
      "stateMutability": "nonpayable",
      "type": "function"
    },
    {
      "inputs": [
        {
          "internalType": "address",
          "name": "token",
          "type": "address"
        },
        {
          "internalType": "uint256",
          "name": "amount",
          "type": "uint256"
        }
      ],
      "name": "stakeTokens",
      "outputs": [],
      "stateMutability": "nonpayable",
      "type": "function"
    },
    {
      "inputs": [
        {
          "internalType": "address",
          "name": "newOwner",
          "type": "address"
        }
      ],
      "name": "transferOwnership",
      "outputs": [],
      "stateMutability": "nonpayable",
      "type": "function"
    },
    {
      "inputs": [
        {
          "internalType": "address",
          "name": "token",
          "type": "address"
        }
      ],
      "name": "unstakeTokens",
      "outputs": [],
      "stateMutability": "nonpayable",
      "type": "function"
    },
    {
      "inputs": [
        {
          "internalType": "address",
          "name": "",
          "type": "address"
        },
        {
          "internalType": "address",
          "name": "",
          "type": "address"
        }
      ],
      "name": "userStakes",
      "outputs": [
        {
          "internalType": "uint256",
          "name": "amount",
          "type": "uint256"
        },
        {
          "internalType": "uint256",
          "name": "startTime",
          "type": "uint256"
        }
      ],
      "stateMutability": "view",
      "type": "function"
    }
  ],
  "bytecode": "0x60806040523480156200001157600080fd5b5060405162000d3f38038062000d3f8339818101604052810190620000379190620001fe565b806001600081905550600073ffffffffffffffffffffffffffffffffffffffff168173ffffffffffffffffffffffffffffffffffffffff1603620000b55760006040517f1e4fbdf7000000000000000000000000000000000000000000000000000000008152600401620000ac919062000241565b60405180910390fd5b620000c681620000ce60201b60201c565b50506200025e565b6000600160009054906101000a900473ffffffffffffffffffffffffffffffffffffffff16905081600160006101000a81548173ffffffffffffffffffffffffffffffffffffffff021916908373ffffffffffffffffffffffffffffffffffffffff1602179055508173ffffffffffffffffffffffffffffffffffffffff168173ffffffffffffffffffffffffffffffffffffffff167f8be0079c531659141344cd1fd0a4f28419497f9722a3daafe3b4186f6b6457e060405160405180910390a35050565b600080fd5b600073ffffffffffffffffffffffffffffffffffffffff82169050919050565b6000620001c68262000199565b9050919050565b620001d881620001b9565b8114620001e457600080fd5b50565b600081519050620001f881620001cd565b92915050565b60006020828403121562000217576200021662000194565b5b60006200022784828501620001e7565b91505092915050565b6200023b81620001b9565b82525050565b600060208201905062000258600083018462000230565b92915050565b610ad1806200026e6000396000f3fe608060405234801561001057600080fd5b50600436106100625760003560e01c80632d1ad8b814610067578063715018a61461008357806379a83f5a1461008d578063862d2d7c146100a95780638da5cb5b146100da578063f2fde38b146100f8575b600080fd5b610081600480360381019061007c91906107a8565b610114565b005b61008b61031e565b005b6100a760048036038101906100a2919061080b565b610332565b005b6100c360048036038101906100be919061084b565b6104bf565b6040516100d192919061089a565b60405180910390f35b6100e26104f0565b6040516100ef91906108d2565b60405180910390f35b610112600480360381019061010d91906107a8565b61051a565b005b61011c6105a0565b6000600260003373ffffffffffffffffffffffffffffffffffffffff1673ffffffffffffffffffffffffffffffffffffffff16815260200190815260200160002060008373ffffffffffffffffffffffffffffffffffffffff1673ffffffffffffffffffffffffffffffffffffffff1681526020019081526020016000209050806001015442116101e2576040517f08c379a00000000000000000000000000000000000000000000000000000000081526004016101d99061094a565b60405180910390fd5b6000816000015490506000811161022e576040517f08c379a0000000000000000000000000000000000000000000000000000000008152600401610225906109b6565b60405180910390fd5b8273ffffffffffffffffffffffffffffffffffffffff1663a9059cbb33836040518363ffffffff1660e01b81526004016102699291906109d6565b6020604051808303816000875af1158015610288573d6000803e3d6000fd5b505050506040513d601f19601f820116820180604052508101906102ac9190610a37565b503373ffffffffffffffffffffffffffffffffffffffff167f4c5a68df1e54dd796657dc5832c88515a36dc92548af9951a0ef38dd61a3322e84836040516102f59291906109d6565b60405180910390a26000826000018190555060008260010181905550505061031b6105e6565b50565b6103266105f0565b6103306000610677565b565b61033a6105a0565b8173ffffffffffffffffffffffffffffffffffffffff166323b872dd3330846040518463ffffffff1660e01b815260040161037793929190610a64565b6020604051808303816000875af1158015610396573d6000803e3d6000fd5b505050506040513d601f19601f820116820180604052508101906103ba9190610a37565b50604051806040016040528082815260200142815250600260003373ffffffffffffffffffffffffffffffffffffffff1673ffffffffffffffffffffffffffffffffffffffff16815260200190815260200160002060008473ffffffffffffffffffffffffffffffffffffffff1673ffffffffffffffffffffffffffffffffffffffff16815260200190815260200160002060008201518160000155602082015181600101559050503373ffffffffffffffffffffffffffffffffffffffff167f17a90bf25d618e67de9bc66de5762d97787b11707d112164ab54c37111467f2b83836040516104ab9291906109d6565b60405180910390a26104bb6105e6565b5050565b6002602052816000526040600020602052806000526040600020600091509150508060000154908060010154905082565b6000600160009054906101000a900473ffffffffffffffffffffffffffffffffffffffff16905090565b6105226105f0565b600073ffffffffffffffffffffffffffffffffffffffff168173ffffffffffffffffffffffffffffffffffffffff16036105945760006040517f1e4fbdf700000000000000000000000000000000000000000000000000000000815260040161058b91906108d2565b60405180910390fd5b61059d81610677565b50565b6002600054036105dc576040517f3ee5aeb500000000000000000000000000000000000000000000000000000000815260040160405180910390fd5b6002600081905550565b6001600081905550565b6105f861073d565b73ffffffffffffffffffffffffffffffffffffffff166106166104f0565b73ffffffffffffffffffffffffffffffffffffffff16146106755761063961073d565b6040517f118cdaa700000000000000000000000000000000000000000000000000000000815260040161066c91906108d2565b60405180910390fd5b565b6000600160009054906101000a900473ffffffffffffffffffffffffffffffffffffffff16905081600160006101000a81548173ffffffffffffffffffffffffffffffffffffffff021916908373ffffffffffffffffffffffffffffffffffffffff1602179055508173ffffffffffffffffffffffffffffffffffffffff168173ffffffffffffffffffffffffffffffffffffffff167f8be0079c531659141344cd1fd0a4f28419497f9722a3daafe3b4186f6b6457e060405160405180910390a35050565b600033905090565b600080fd5b600073ffffffffffffffffffffffffffffffffffffffff82169050919050565b60006107758261074a565b9050919050565b6107858161076a565b811461079057600080fd5b50565b6000813590506107a28161077c565b92915050565b6000602082840312156107be576107bd610745565b5b60006107cc84828501610793565b91505092915050565b6000819050919050565b6107e8816107d5565b81146107f357600080fd5b50565b600081359050610805816107df565b92915050565b6000806040838503121561082257610821610745565b5b600061083085828601610793565b9250506020610841858286016107f6565b9150509250929050565b6000806040838503121561086257610861610745565b5b600061087085828601610793565b925050602061088185828601610793565b9150509250929050565b610894816107d5565b82525050565b60006040820190506108af600083018561088b565b6108bc602083018461088b565b9392505050565b6108cc8161076a565b82525050565b60006020820190506108e760008301846108c3565b92915050565b600082825260208201905092915050565b7f5374616b696e6720706572696f64206e6f74207965742066696e697368656400600082015250565b6000610934601f836108ed565b915061093f826108fe565b602082019050919050565b6000602082019050818103600083015261096381610927565b9050919050565b7f4e6f20746f6b656e73207374616b656400000000000000000000000000000000600082015250565b60006109a06010836108ed565b91506109ab8261096a565b602082019050919050565b600060208201905081810360008301526109cf81610993565b9050919050565b60006040820190506109eb60008301856108c3565b6109f8602083018461088b565b9392505050565b60008115159050919050565b610a14816109ff565b8114610a1f57600080fd5b50565b600081519050610a3181610a0b565b92915050565b600060208284031215610a4d57610a4c610745565b5b6000610a5b84828501610a22565b91505092915050565b6000606082019050610a7960008301866108c3565b610a8660208301856108c3565b610a93604083018461088b565b94935050505056fea26469706673582212205d4ce89bb81e0804ccabf3d2d7cab2d4af1017718c142c890b6b8a03e6da7dd964736f6c63430008140033",
  "linkReferences": {},
  "deployedLinkReferences": {}
}