{
  "_format": "hh-sol-artifact-1",
  "contractName": "Swap",
  "sourceName": "contracts/Swap.sol",
  "abi": [
    {
      "anonymous": false,
      "inputs": [
        {
          "indexed": true,
          "internalType": "address",
          "name": "user",
          "type": "address"
        },
        {
          "indexed": false,
          "internalType": "address",
          "name": "fromToken",
          "type": "address"
        },
        {
          "indexed": false,
          "internalType": "address",
          "name": "toToken",
          "type": "address"
        },
        {
          "indexed": false,
          "internalType": "uint256",
          "name": "amount",
          "type": "uint256"
        },
        {
          "indexed": false,
          "internalType": "uint256",
          "name": "receivedAmount",
          "type": "uint256"
        }
      ],
      "name": "TokenSwapped",
      "type": "event"
    },
    {
      "inputs": [
        {
          "internalType": "uint256",
          "name": "_swapFee",
          "type": "uint256"
        }
      ],
      "name": "setSwapFee",
      "outputs": [],
      "stateMutability": "nonpayable",
      "type": "function"
    },
    {
      "inputs": [],
      "name": "swapFee",
      "outputs": [
        {
          "internalType": "uint256",
          "name": "",
          "type": "uint256"
        }
      ],
      "stateMutability": "view",
      "type": "function"
    },
    {
      "inputs": [
        {
          "internalType": "address",
          "name": "fromToken",
          "type": "address"
        },
        {
          "internalType": "address",
          "name": "toToken",
          "type": "address"
        },
        {
          "internalType": "uint256",
          "name": "amount",
          "type": "uint256"
        },
        {
          "internalType": "address",
          "name": "user",
          "type": "address"
        }
      ],
      "name": "tokenSwap",
      "outputs": [],
      "stateMutability": "nonpayable",
      "type": "function"
    }
  ],
  "bytecode": "0x6080604052606460005534801561001557600080fd5b50610793806100256000396000f3fe608060405234801561001057600080fd5b50600436106100415760003560e01c80632a9a860c1461004657806334e199071461006257806354cf2aeb1461007e575b600080fd5b610060600480360381019061005b919061034c565b61009c565b005b61007c600480360381019061007791906103b3565b6102a3565b005b6100866102ad565b60405161009391906103ef565b60405180910390f35b8373ffffffffffffffffffffffffffffffffffffffff166323b872dd8230856040518463ffffffff1660e01b81526004016100d993929190610419565b6020604051808303816000875af11580156100f8573d6000803e3d6000fd5b505050506040513d601f19601f8201168201806040525081019061011c9190610488565b61015b576040517f08c379a000000000000000000000000000000000000000000000000000000000815260040161015290610538565b60405180910390fd5b60006127106000548461016e9190610587565b61017891906105f8565b9050600081846101889190610629565b90508473ffffffffffffffffffffffffffffffffffffffff1663a9059cbb84836040518363ffffffff1660e01b81526004016101c592919061065d565b6020604051808303816000875af11580156101e4573d6000803e3d6000fd5b505050506040513d601f19601f820116820180604052508101906102089190610488565b610247576040517f08c379a000000000000000000000000000000000000000000000000000000000815260040161023e906106f8565b60405180910390fd5b8273ffffffffffffffffffffffffffffffffffffffff167fd36cc53ba71bc76a3db3364981f5296dd4ca5eba0e8c89874f2170515bd20d24878787856040516102939493929190610718565b60405180910390a2505050505050565b8060008190555050565b60005481565b600080fd5b600073ffffffffffffffffffffffffffffffffffffffff82169050919050565b60006102e3826102b8565b9050919050565b6102f3816102d8565b81146102fe57600080fd5b50565b600081359050610310816102ea565b92915050565b6000819050919050565b61032981610316565b811461033457600080fd5b50565b60008135905061034681610320565b92915050565b60008060008060808587031215610366576103656102b3565b5b600061037487828801610301565b945050602061038587828801610301565b935050604061039687828801610337565b92505060606103a787828801610301565b91505092959194509250565b6000602082840312156103c9576103c86102b3565b5b60006103d784828501610337565b91505092915050565b6103e981610316565b82525050565b600060208201905061040460008301846103e0565b92915050565b610413816102d8565b82525050565b600060608201905061042e600083018661040a565b61043b602083018561040a565b61044860408301846103e0565b949350505050565b60008115159050919050565b61046581610450565b811461047057600080fd5b50565b6000815190506104828161045c565b92915050565b60006020828403121561049e5761049d6102b3565b5b60006104ac84828501610473565b91505092915050565b600082825260208201905092915050565b7f4563686563206475207472616e736665727420646570756973206c277574696c60008201527f6973617465757200000000000000000000000000000000000000000000000000602082015250565b60006105226027836104b5565b915061052d826104c6565b604082019050919050565b6000602082019050818103600083015261055181610515565b9050919050565b7f4e487b7100000000000000000000000000000000000000000000000000000000600052601160045260246000fd5b600061059282610316565b915061059d83610316565b92508282026105ab81610316565b915082820484148315176105c2576105c1610558565b5b5092915050565b7f4e487b7100000000000000000000000000000000000000000000000000000000600052601260045260246000fd5b600061060382610316565b915061060e83610316565b92508261061e5761061d6105c9565b5b828204905092915050565b600061063482610316565b915061063f83610316565b925082820390508181111561065757610656610558565b5b92915050565b6000604082019050610672600083018561040a565b61067f60208301846103e0565b9392505050565b7f4563686563206475207472616e73666572742061206c277574696c697361746560008201527f7572000000000000000000000000000000000000000000000000000000000000602082015250565b60006106e26022836104b5565b91506106ed82610686565b604082019050919050565b60006020820190508181036000830152610711816106d5565b9050919050565b600060808201905061072d600083018761040a565b61073a602083018661040a565b61074760408301856103e0565b61075460608301846103e0565b9594505050505056fea2646970667358221220f83d0433258e95e29fdf6b2deb1e454b919f210c0b5fa311b9fbfc1d3b72993064736f6c63430008140033",
  "linkReferences": {},
  "deployedLinkReferences": {}
}