{
  "_format": "hh-sol-artifact-1",
  "contractName": "AssetManager",
  "sourceName": "contracts/AssetManager.sol",
  "abi": [
    {
      "inputs": [
        {
          "internalType": "address",
          "name": "owner",
          "type": "address"
        }
      ],
      "name": "OwnableInvalidOwner",
      "type": "error"
    },
    {
      "inputs": [
        {
          "internalType": "address",
          "name": "account",
          "type": "address"
        }
      ],
      "name": "OwnableUnauthorizedAccount",
      "type": "error"
    },
    {
      "anonymous": false,
      "inputs": [
        {
          "indexed": true,
          "internalType": "uint256",
          "name": "assetId",
          "type": "uint256"
        },
        {
          "indexed": false,
          "internalType": "string",
          "name": "name",
          "type": "string"
        },
        {
          "indexed": false,
          "internalType": "address",
          "name": "tokenAddress",
          "type": "address"
        },
        {
          "indexed": false,
          "internalType": "uint256",
          "name": "price",
          "type": "uint256"
        }
      ],
      "name": "AssetAdded",
      "type": "event"
    },
    {
      "anonymous": false,
      "inputs": [
        {
          "indexed": true,
          "internalType": "uint256",
          "name": "assetId",
          "type": "uint256"
        },
        {
          "indexed": false,
          "internalType": "uint256",
          "name": "price",
          "type": "uint256"
        },
        {
          "indexed": false,
          "internalType": "uint256",
          "name": "volume",
          "type": "uint256"
        },
        {
          "indexed": false,
          "internalType": "uint256",
          "name": "tradeCount",
          "type": "uint256"
        }
      ],
      "name": "AssetUpdated",
      "type": "event"
    },
    {
      "anonymous": false,
      "inputs": [
        {
          "indexed": true,
          "internalType": "address",
          "name": "previousOwner",
          "type": "address"
        },
        {
          "indexed": true,
          "internalType": "address",
          "name": "newOwner",
          "type": "address"
        }
      ],
      "name": "OwnershipTransferred",
      "type": "event"
    },
    {
      "inputs": [
        {
          "internalType": "string",
          "name": "name",
          "type": "string"
        },
        {
          "internalType": "address",
          "name": "tokenAddress",
          "type": "address"
        },
        {
          "internalType": "uint256",
          "name": "price",
          "type": "uint256"
        }
      ],
      "name": "addAsset",
      "outputs": [],
      "stateMutability": "nonpayable",
      "type": "function"
    },
    {
      "inputs": [
        {
          "internalType": "uint256",
          "name": "",
          "type": "uint256"
        }
      ],
      "name": "assets",
      "outputs": [
        {
          "internalType": "string",
          "name": "name",
          "type": "string"
        },
        {
          "internalType": "address",
          "name": "tokenAddress",
          "type": "address"
        },
        {
          "internalType": "uint256",
          "name": "price",
          "type": "uint256"
        },
        {
          "internalType": "uint256",
          "name": "volume",
          "type": "uint256"
        },
        {
          "internalType": "uint256",
          "name": "tradeCount",
          "type": "uint256"
        }
      ],
      "stateMutability": "view",
      "type": "function"
    },
    {
      "inputs": [
        {
          "internalType": "uint256",
          "name": "assetId",
          "type": "uint256"
        }
      ],
      "name": "getAsset",
      "outputs": [
        {
          "components": [
            {
              "internalType": "string",
              "name": "name",
              "type": "string"
            },
            {
              "internalType": "address",
              "name": "tokenAddress",
              "type": "address"
            },
            {
              "internalType": "uint256",
              "name": "price",
              "type": "uint256"
            },
            {
              "internalType": "uint256",
              "name": "volume",
              "type": "uint256"
            },
            {
              "internalType": "uint256",
              "name": "tradeCount",
              "type": "uint256"
            }
          ],
          "internalType": "struct AssetManager.Asset",
          "name": "",
          "type": "tuple"
        }
      ],
      "stateMutability": "view",
      "type": "function"
    },
    {
      "inputs": [],
      "name": "owner",
      "outputs": [
        {
          "internalType": "address",
          "name": "",
          "type": "address"
        }
      ],
      "stateMutability": "view",
      "type": "function"
    },
    {
      "inputs": [],
      "name": "renounceOwnership",
      "outputs": [],
      "stateMutability": "nonpayable",
      "type": "function"
    },
    {
      "inputs": [
        {
          "internalType": "address",
          "name": "newOwner",
          "type": "address"
        }
      ],
      "name": "transferOwnership",
      "outputs": [],
      "stateMutability": "nonpayable",
      "type": "function"
    },
    {
      "inputs": [
        {
          "internalType": "uint256",
          "name": "assetId",
          "type": "uint256"
        },
        {
          "internalType": "uint256",
          "name": "price",
          "type": "uint256"
        },
        {
          "internalType": "uint256",
          "name": "volume",
          "type": "uint256"
        },
        {
          "internalType": "uint256",
          "name": "tradeCount",
          "type": "uint256"
        }
      ],
      "name": "updateAsset",
      "outputs": [],
      "stateMutability": "nonpayable",
      "type": "function"
    }
  ],
  "bytecode": "0x608060405234801561001057600080fd5b5060008073ffffffffffffffffffffffffffffffffffffffff168173ffffffffffffffffffffffffffffffffffffffff16036100845760006040517f1e4fbdf700000000000000000000000000000000000000000000000000000000815260040161007b919061019e565b60405180910390fd5b6100938161009960201b60201c565b506101b9565b60008060009054906101000a900473ffffffffffffffffffffffffffffffffffffffff169050816000806101000a81548173ffffffffffffffffffffffffffffffffffffffff021916908373ffffffffffffffffffffffffffffffffffffffff1602179055508173ffffffffffffffffffffffffffffffffffffffff168173ffffffffffffffffffffffffffffffffffffffff167f8be0079c531659141344cd1fd0a4f28419497f9722a3daafe3b4186f6b6457e060405160405180910390a35050565b600073ffffffffffffffffffffffffffffffffffffffff82169050919050565b60006101888261015d565b9050919050565b6101988161017d565b82525050565b60006020820190506101b3600083018461018f565b92915050565b6111fe80620001c96000396000f3fe608060405234801561001057600080fd5b506004361061007d5760003560e01c80638da5cb5b1161005b5780638da5cb5b146100c4578063cf35bdd0146100e2578063eac8f5b814610116578063f2fde38b146101465761007d565b806302b8df0e14610082578063418519b71461009e578063715018a6146100ba575b600080fd5b61009c60048036038101906100979190610891565b610162565b005b6100b860048036038101906100b39190610a9c565b610235565b005b6100c2610375565b005b6100cc610389565b6040516100d99190610b1a565b60405180910390f35b6100fc60048036038101906100f79190610b35565b6103b2565b60405161010d959493929190610bf0565b60405180910390f35b610130600480360381019061012b9190610b35565b6104a0565b60405161013d9190610d28565b60405180910390f35b610160600480360381019061015b9190610d4a565b610629565b005b61016a6106af565b60018054905084106101b1576040517f08c379a00000000000000000000000000000000000000000000000000000000081526004016101a890610dc3565b60405180910390fd5b6000600185815481106101c7576101c6610de3565b5b90600052602060002090600502019050838160020181905550828160030181905550818160040181905550847f16eda27dbcc554e0596ee101ccf42761f8194a5322a700949c8f7f84b1371ce485858560405161022693929190610e12565b60405180910390a25050505050565b61023d6106af565b60016040518060a001604052808581526020018473ffffffffffffffffffffffffffffffffffffffff168152602001838152602001600081526020016000815250908060018154018082558091505060019003906000526020600020906005020160009091909190915060008201518160000190816102bc9190611055565b5060208201518160010160006101000a81548173ffffffffffffffffffffffffffffffffffffffff021916908373ffffffffffffffffffffffffffffffffffffffff1602179055506040820151816002015560608201518160030155608082015181600401555050600180805490506103359190611156565b7fb13cfc0cdb4c9d92ee8c07aa1374e61fdf3a8f89fdac62695730b511f48a4f518484846040516103689392919061118a565b60405180910390a2505050565b61037d6106af565b6103876000610736565b565b60008060009054906101000a900473ffffffffffffffffffffffffffffffffffffffff16905090565b600181815481106103c257600080fd5b90600052602060002090600502016000915090508060000180546103e590610e78565b80601f016020809104026020016040519081016040528092919081815260200182805461041190610e78565b801561045e5780601f106104335761010080835404028352916020019161045e565b820191906000526020600020905b81548152906001019060200180831161044157829003601f168201915b5050505050908060010160009054906101000a900473ffffffffffffffffffffffffffffffffffffffff16908060020154908060030154908060040154905085565b6104a8610802565b60018054905082106104ef576040517f08c379a00000000000000000000000000000000000000000000000000000000081526004016104e690610dc3565b60405180910390fd5b6001828154811061050357610502610de3565b5b90600052602060002090600502016040518060a001604052908160008201805461052c90610e78565b80601f016020809104026020016040519081016040528092919081815260200182805461055890610e78565b80156105a55780601f1061057a576101008083540402835291602001916105a5565b820191906000526020600020905b81548152906001019060200180831161058857829003601f168201915b505050505081526020016001820160009054906101000a900473ffffffffffffffffffffffffffffffffffffffff1673ffffffffffffffffffffffffffffffffffffffff1673ffffffffffffffffffffffffffffffffffffffff16815260200160028201548152602001600382015481526020016004820154815250509050919050565b6106316106af565b600073ffffffffffffffffffffffffffffffffffffffff168173ffffffffffffffffffffffffffffffffffffffff16036106a35760006040517f1e4fbdf700000000000000000000000000000000000000000000000000000000815260040161069a9190610b1a565b60405180910390fd5b6106ac81610736565b50565b6106b76107fa565b73ffffffffffffffffffffffffffffffffffffffff166106d5610389565b73ffffffffffffffffffffffffffffffffffffffff1614610734576106f86107fa565b6040517f118cdaa700000000000000000000000000000000000000000000000000000000815260040161072b9190610b1a565b60405180910390fd5b565b60008060009054906101000a900473ffffffffffffffffffffffffffffffffffffffff169050816000806101000a81548173ffffffffffffffffffffffffffffffffffffffff021916908373ffffffffffffffffffffffffffffffffffffffff1602179055508173ffffffffffffffffffffffffffffffffffffffff168173ffffffffffffffffffffffffffffffffffffffff167f8be0079c531659141344cd1fd0a4f28419497f9722a3daafe3b4186f6b6457e060405160405180910390a35050565b600033905090565b6040518060a0016040528060608152602001600073ffffffffffffffffffffffffffffffffffffffff1681526020016000815260200160008152602001600081525090565b6000604051905090565b600080fd5b600080fd5b6000819050919050565b61086e8161085b565b811461087957600080fd5b50565b60008135905061088b81610865565b92915050565b600080600080608085870312156108ab576108aa610851565b5b60006108b98782880161087c565b94505060206108ca8782880161087c565b93505060406108db8782880161087c565b92505060606108ec8782880161087c565b91505092959194509250565b600080fd5b600080fd5b6000601f19601f8301169050919050565b7f4e487b7100000000000000000000000000000000000000000000000000000000600052604160045260246000fd5b61094b82610902565b810181811067ffffffffffffffff8211171561096a57610969610913565b5b80604052505050565b600061097d610847565b90506109898282610942565b919050565b600067ffffffffffffffff8211156109a9576109a8610913565b5b6109b282610902565b9050602081019050919050565b82818337600083830152505050565b60006109e16109dc8461098e565b610973565b9050828152602081018484840111156109fd576109fc6108fd565b5b610a088482856109bf565b509392505050565b600082601f830112610a2557610a246108f8565b5b8135610a358482602086016109ce565b91505092915050565b600073ffffffffffffffffffffffffffffffffffffffff82169050919050565b6000610a6982610a3e565b9050919050565b610a7981610a5e565b8114610a8457600080fd5b50565b600081359050610a9681610a70565b92915050565b600080600060608486031215610ab557610ab4610851565b5b600084013567ffffffffffffffff811115610ad357610ad2610856565b5b610adf86828701610a10565b9350506020610af086828701610a87565b9250506040610b018682870161087c565b9150509250925092565b610b1481610a5e565b82525050565b6000602082019050610b2f6000830184610b0b565b92915050565b600060208284031215610b4b57610b4a610851565b5b6000610b598482850161087c565b91505092915050565b600081519050919050565b600082825260208201905092915050565b60005b83811015610b9c578082015181840152602081019050610b81565b60008484015250505050565b6000610bb382610b62565b610bbd8185610b6d565b9350610bcd818560208601610b7e565b610bd681610902565b840191505092915050565b610bea8161085b565b82525050565b600060a0820190508181036000830152610c0a8188610ba8565b9050610c196020830187610b0b565b610c266040830186610be1565b610c336060830185610be1565b610c406080830184610be1565b9695505050505050565b600082825260208201905092915050565b6000610c6682610b62565b610c708185610c4a565b9350610c80818560208601610b7e565b610c8981610902565b840191505092915050565b610c9d81610a5e565b82525050565b610cac8161085b565b82525050565b600060a0830160008301518482036000860152610ccf8282610c5b565b9150506020830151610ce46020860182610c94565b506040830151610cf76040860182610ca3565b506060830151610d0a6060860182610ca3565b506080830151610d1d6080860182610ca3565b508091505092915050565b60006020820190508181036000830152610d428184610cb2565b905092915050565b600060208284031215610d6057610d5f610851565b5b6000610d6e84828501610a87565b91505092915050565b7f417373657420494420696e76616c696465000000000000000000000000000000600082015250565b6000610dad601183610b6d565b9150610db882610d77565b602082019050919050565b60006020820190508181036000830152610ddc81610da0565b9050919050565b7f4e487b7100000000000000000000000000000000000000000000000000000000600052603260045260246000fd5b6000606082019050610e276000830186610be1565b610e346020830185610be1565b610e416040830184610be1565b949350505050565b7f4e487b7100000000000000000000000000000000000000000000000000000000600052602260045260246000fd5b60006002820490506001821680610e9057607f821691505b602082108103610ea357610ea2610e49565b5b50919050565b60008190508160005260206000209050919050565b60006020601f8301049050919050565b600082821b905092915050565b600060088302610f0b7fffffffffffffffffffffffffffffffffffffffffffffffffffffffffffffffff82610ece565b610f158683610ece565b95508019841693508086168417925050509392505050565b6000819050919050565b6000610f52610f4d610f488461085b565b610f2d565b61085b565b9050919050565b6000819050919050565b610f6c83610f37565b610f80610f7882610f59565b848454610edb565b825550505050565b600090565b610f95610f88565b610fa0818484610f63565b505050565b5b81811015610fc457610fb9600082610f8d565b600181019050610fa6565b5050565b601f82111561100957610fda81610ea9565b610fe384610ebe565b81016020851015610ff2578190505b611006610ffe85610ebe565b830182610fa5565b50505b505050565b600082821c905092915050565b600061102c6000198460080261100e565b1980831691505092915050565b6000611045838361101b565b9150826002028217905092915050565b61105e82610b62565b67ffffffffffffffff81111561107757611076610913565b5b6110818254610e78565b61108c828285610fc8565b600060209050601f8311600181146110bf57600084156110ad578287015190505b6110b78582611039565b86555061111f565b601f1984166110cd86610ea9565b60005b828110156110f5578489015182556001820191506020850194506020810190506110d0565b86831015611112578489015161110e601f89168261101b565b8355505b6001600288020188555050505b505050505050565b7f4e487b7100000000000000000000000000000000000000000000000000000000600052601160045260246000fd5b60006111618261085b565b915061116c8361085b565b925082820390508181111561118457611183611127565b5b92915050565b600060608201905081810360008301526111a48186610ba8565b90506111b36020830185610b0b565b6111c06040830184610be1565b94935050505056fea2646970667358221220176f9aca6cd13cc2f100abc5217898cb5d5299607bc354b57e2afbcd7cbf366564736f6c63430008140033",
  "linkReferences": {},
  "deployedLinkReferences": {}
}