{
  "_format": "hh-sol-artifact-1",
  "contractName": "AdminManager",
  "sourceName": "contracts/AdminManager.sol",
  "abi": [
    {
      "inputs": [],
      "stateMutability": "nonpayable",
      "type": "constructor"
    },
    {
      "inputs": [
        {
          "internalType": "address",
          "name": "_user",
          "type": "address"
        }
      ],
      "name": "banAddress",
      "outputs": [],
      "stateMutability": "nonpayable",
      "type": "function"
    },
    {
      "inputs": [
        {
          "internalType": "address",
          "name": "",
          "type": "address"
        }
      ],
      "name": "bannedAddresses",
      "outputs": [
        {
          "internalType": "bool",
          "name": "",
          "type": "bool"
        }
      ],
      "stateMutability": "view",
      "type": "function"
    },
    {
      "inputs": [
        {
          "internalType": "address",
          "name": "_to",
          "type": "address"
        },
        {
          "internalType": "address",
          "name": "_token",
          "type": "address"
        },
        {
          "internalType": "uint256",
          "name": "_amount",
          "type": "uint256"
        }
      ],
      "name": "grantAsset",
      "outputs": [],
      "stateMutability": "nonpayable",
      "type": "function"
    },
    {
      "inputs": [],
      "name": "owner",
      "outputs": [
        {
          "internalType": "address",
          "name": "",
          "type": "address"
        }
      ],
      "stateMutability": "view",
      "type": "function"
    },
    {
      "inputs": [],
      "name": "platformFee",
      "outputs": [
        {
          "internalType": "uint256",
          "name": "",
          "type": "uint256"
        }
      ],
      "stateMutability": "view",
      "type": "function"
    },
    {
      "inputs": [
        {
          "internalType": "uint256",
          "name": "_fee",
          "type": "uint256"
        }
      ],
      "name": "setFees",
      "outputs": [],
      "stateMutability": "nonpayable",
      "type": "function"
    },
    {
      "inputs": [
        {
          "internalType": "address",
          "name": "_user",
          "type": "address"
        }
      ],
      "name": "unbanAddress",
      "outputs": [],
      "stateMutability": "nonpayable",
      "type": "function"
    }
  ],
  "bytecode": "0x608060405234801561001057600080fd5b50336000806101000a81548173ffffffffffffffffffffffffffffffffffffffff021916908373ffffffffffffffffffffffffffffffffffffffff16021790555061084f806100606000396000f3fe608060405234801561001057600080fd5b506004361061007d5760003560e01c80637f49f7091161005b5780637f49f709146100ec5780638293a114146101085780638da5cb5b14610124578063dde61ae1146101425761007d565b806326232a2e146100825780633d18678e146100a057806355bc8725146100bc575b600080fd5b61008a61015e565b604051610097919061053d565b60405180910390f35b6100ba60048036038101906100b59190610589565b610164565b005b6100d660048036038101906100d19190610614565b6101fc565b6040516100e3919061065c565b60405180910390f35b61010660048036038101906101019190610614565b61021c565b005b610122600480360381019061011d9190610614565b610305565b005b61012c6103ee565b6040516101399190610686565b60405180910390f35b61015c600480360381019061015791906106a1565b610412565b005b60015481565b60008054906101000a900473ffffffffffffffffffffffffffffffffffffffff1673ffffffffffffffffffffffffffffffffffffffff163373ffffffffffffffffffffffffffffffffffffffff16146101f2576040517f08c379a00000000000000000000000000000000000000000000000000000000081526004016101e990610777565b60405180910390fd5b8060018190555050565b60026020528060005260406000206000915054906101000a900460ff1681565b60008054906101000a900473ffffffffffffffffffffffffffffffffffffffff1673ffffffffffffffffffffffffffffffffffffffff163373ffffffffffffffffffffffffffffffffffffffff16146102aa576040517f08c379a00000000000000000000000000000000000000000000000000000000081526004016102a190610777565b60405180910390fd5b6001600260008373ffffffffffffffffffffffffffffffffffffffff1673ffffffffffffffffffffffffffffffffffffffff16815260200190815260200160002060006101000a81548160ff02191690831515021790555050565b60008054906101000a900473ffffffffffffffffffffffffffffffffffffffff1673ffffffffffffffffffffffffffffffffffffffff163373ffffffffffffffffffffffffffffffffffffffff1614610393576040517f08c379a000000000000000000000000000000000000000000000000000000000815260040161038a90610777565b60405180910390fd5b6000600260008373ffffffffffffffffffffffffffffffffffffffff1673ffffffffffffffffffffffffffffffffffffffff16815260200190815260200160002060006101000a81548160ff02191690831515021790555050565b60008054906101000a900473ffffffffffffffffffffffffffffffffffffffff1681565b60008054906101000a900473ffffffffffffffffffffffffffffffffffffffff1673ffffffffffffffffffffffffffffffffffffffff163373ffffffffffffffffffffffffffffffffffffffff16146104a0576040517f08c379a000000000000000000000000000000000000000000000000000000000815260040161049790610777565b60405180910390fd5b8173ffffffffffffffffffffffffffffffffffffffff1663a9059cbb84836040518363ffffffff1660e01b81526004016104db929190610797565b6020604051808303816000875af11580156104fa573d6000803e3d6000fd5b505050506040513d601f19601f8201168201806040525081019061051e91906107ec565b50505050565b6000819050919050565b61053781610524565b82525050565b6000602082019050610552600083018461052e565b92915050565b600080fd5b61056681610524565b811461057157600080fd5b50565b6000813590506105838161055d565b92915050565b60006020828403121561059f5761059e610558565b5b60006105ad84828501610574565b91505092915050565b600073ffffffffffffffffffffffffffffffffffffffff82169050919050565b60006105e1826105b6565b9050919050565b6105f1816105d6565b81146105fc57600080fd5b50565b60008135905061060e816105e8565b92915050565b60006020828403121561062a57610629610558565b5b6000610638848285016105ff565b91505092915050565b60008115159050919050565b61065681610641565b82525050565b6000602082019050610671600083018461064d565b92915050565b610680816105d6565b82525050565b600060208201905061069b6000830184610677565b92915050565b6000806000606084860312156106ba576106b9610558565b5b60006106c8868287016105ff565b93505060206106d9868287016105ff565b92505060406106ea86828701610574565b9150509250925092565b600082825260208201905092915050565b7f5365756c206c652070726f70726965746169726520706575742065666665637460008201527f75657220636574746520616374696f6e00000000000000000000000000000000602082015250565b60006107616030836106f4565b915061076c82610705565b604082019050919050565b6000602082019050818103600083015261079081610754565b9050919050565b60006040820190506107ac6000830185610677565b6107b9602083018461052e565b9392505050565b6107c981610641565b81146107d457600080fd5b50565b6000815190506107e6816107c0565b92915050565b60006020828403121561080257610801610558565b5b6000610810848285016107d7565b9150509291505056fea26469706673582212209c123d512daf513e756f6c443eb170a2f6c31e32ad5d214d31d704f5838983ea64736f6c63430008140033",
  "linkReferences": {},
  "deployedLinkReferences": {}
}